:100000000C9463000C948B000C948B000C947C0477
:100010000C947C040C947C040C948B000C948B004A
:100020000C948B000C948B000C948B000C948B0024
:100030000C948B000C948B000C948B000C948B0014
:100040000C9432040C948B000C946E030C944803B3
:100050000C948B000C948B000C948B000C948B00F4
:100060000C948B000C948B0000000008000201002F
:100070000003040700000000000000000000000072
:10008000250028002B0000000000240027002A0083
:1000900000000000230026002900040404040404D6
:1000A0000404020202020202030303030303010227
:1000B00004081020408001020408102001020408F6
:1000C0001020EF0BDB0B11241FBECFEFD8E0DEBFFB
:1000D000CDBF13E0A0E0B1E0E2E7FDE102C0059092
:1000E0000D92A834B107D9F725E0A8E4B3E001C028
:1000F0001D92A13FB207E1F710E0C2E6D0E004C0D4
:100100002197FE010E94780EC136D107C9F70E94DF
:10011000040D0C94AC0E0C940000CF92DF92EF9281
:10012000FF920F931F93CF93DF936C017A018B01A2
:10013000C0E0D0E0CE15DF0589F0D8016D918D01CA
:10014000D601ED91FC910190F081E02DC601099559
:10015000892B11F47E0102C02196ECCFC701DF91FB
:10016000CF911F910F91FF90EF90DF90CF90089566
:10017000FC01538D448D252F30E0842F90E0821BAD
:10018000930B541710F0CF96089501970895FC0132
:10019000918D828D981761F0828DDF01A80FB11DBE
:1001A0005D968C91928D9F5F9F73928F90E00895E2
:1001B0008FEF9FEF0895FC01918D828D981731F09C
:1001C000828DE80FF11D858D90E008958FEF9FEFF0
:1001D0000895FC01918D228D892F90E0805C9F4FC6
:1001E000821B91098F739927089585E993E00E94F6
:1001F000E90021E0892B09F420E0822F0895FC0119
:10020000848DDF01A80FB11DA35ABF4F2C91848D9F
:1002100090E001968F739927848FA689B7892C93D4
:10022000A089B1898C9180648C93938D848D98136F
:1002300006C00288F389E02D80818F7D8083089538
:10024000EF92FF920F931F93CF93DF93EC0181E026
:10025000888F9B8D8C8D981305C0E889F9898081E2
:1002600085FD24C0F62E0B8D10E00F5F1F4F0F731E
:100270001127E02E8C8DE8120CC00FB607FCFACFC8
:10028000E889F989808185FFF5CFCE010E94FF00C2
:10029000F1CF8B8DFE01E80FF11DE35AFF4FF08285
:1002A0000B8FEA89FB898081806207C0EE89FF8914
:1002B0006083E889F98980818064808381E090E0AF
:1002C000DF91CF911F910F91FF90EF900895CF9301
:1002D000DF93EC01888D8823C9F0EA89FB8980814E
:1002E00085FD05C0A889B9898C9186FD0FC00FB620
:1002F00007FCF5CF808185FFF2CFA889B9898C9161
:1003000085FFEDCFCE010E94FF00E7CFDF91CF91B7
:10031000089580E090E0892B29F00E94F50081117A
:100320000C94000008953FB7F89480919103909148
:100330009203A0919303B091940326B5A89B05C0A6
:100340002F3F19F00196A11DB11D3FBFBA2FA92F54
:10035000982F8827820F911DA11DB11DBC01CD01D1
:1003600042E0660F771F881F991F4A95D1F70895BD
:1003700020918A0330918B032817390771F49091EB
:10038000890380918803981741F0E0918903F0E098
:10039000E85BFC4F808190E008958FEF9FEF089518
:1003A00008951F93CF93DF93DC015C962D913C91D0
:1003B0005D972115310539F481E090E013969C9307
:1003C0008E9312973DC05196ED91FC9152975096A5
:1003D0009C915097892F80951FB75E964C915E97A0
:1003E00041FB772770F941FD6095F89440817723B0
:1003F00011F0492B01C048234083E9012197F1F70F
:1004000048E0508160FF02C0592B01C0582350833F
:10041000E9012197F1F76695415099F7772321F08B
:1004200090818923808303C08081982B90831FBF94
:100430005C968D919C915D970197F1F721E030E0FA
:10044000C901DF91CF911F91089520918A033091C6
:100450008B032817390771F4809188032091890351
:1004600090E0805C9F4F821B910960E470E00E94E5
:10047000040E089580E090E0089520918A03309161
:100480008B0328173907B9F4909189038091880369
:10049000981789F0E0918903F0E0E85BFC4F8081D8
:1004A0002091890330E02F5F3F4F2F733327209334
:1004B000890390E008958FEF9FEF0895E0918A03FC
:1004C000F0918B03E817F90769F4A389B4899C912B
:1004D0008589809589238C9310928B0310928A03CF
:1004E00081E0089580E00895CF93DF93EC019A01B5
:1004F000AB011B8E1A8E198E188E1F8A1E8A60E021
:1005000079E08DE390E00E943A0EF9012430310544
:1005100018F0C901039702C081E090E09D8F8C8F95
:100520006C85663108F069C0C9019695879584315C
:10053000910510F0439702C081E090E09F8B8E8B75
:10054000369718F0C901059702C081E090E0998FB5
:10055000888FC901880F991F280F391F3695279555
:10056000369527952D30310518F02C50310902C0F1
:1005700021E030E03B8F2A8F90916800683050F086
:1005800021E06E3008F420E081E001C0880F2A9558
:10059000EAF701C084E0892B809368009C8598303D
:1005A00038F09E3040F0963148F020E030E008C04E
:1005B0002DE630E005C02BE630E002C02CE630E04E
:1005C0003C8B2B8B983030F481E001C0880F9A95DA
:1005D000EAF70EC0292F30E09E3018F42850310978
:1005E00002C02E50310981E001C0880F2A95EAF738
:1005F0008D8B8C8D9D8D0197F1F78A8D9B8D892B2D
:10060000E1F080918A0390918B038C179D07A9F0EC
:10061000009711F00E945E028E8D8E7F8E8F109259
:10062000880310928903D0938B03C0938A03EB89CC
:10063000FC8990818D89892B8083DF91CF910895EA
:10064000089580E090E00895DC01ED91FC913697EB
:1006500020813181820F931F84529F4F0E943D025F
:1006600008956115710579F0FB0101900020E9F70B
:100670003197AF01461B570BDC01ED91FC910280D5
:10068000F381E02D099480E090E008950C9431030B
:100690001F920F920FB60F9211242F933F934F93F7
:1006A0005F936F937F938F939F93AF93BF93EF93DA
:1006B000FF9385E993E00E94FF00FF91EF91BF91C6
:1006C000AF919F918F917F916F915F914F913F91EA
:1006D0002F910F900FBE0F901F9018951F920F92A1
:1006E0000FB60F9211242F938F939F93EF93FF9345
:1006F000E091A503F091A6038081E091AB03F09116
:10070000AC0382FD12C090818091AE038F5F8F7326
:100710002091AF03821751F0E091AE03F0E0EB5669
:10072000FC4F958F8093AE0301C08081FF91EF91C4
:100730009F918F912F910F900FBE0F901F90189542
:1007400090E0FC01E859FF4F3491FC01E255FF4F66
:100750002491FC01E656FF4FE491EE2309F43BC0DF
:10076000332339F1333091F038F43130A9F032309D
:1007700001F584B58F7D12C0373091F03830A1F08B
:100780003430B9F4809180008F7D03C08091800067
:100790008F77809380000DC084B58F7784BD09C0AA
:1007A0008091B0008F7703C08091B0008F7D8093DF
:1007B000B000F0E0EE0FFF1FE458FF4FA591B49199
:1007C0008FB7F894EC91611103C020952E2301C0DE
:1007D0002E2B2C938FBF08958F929F92AF92BF9232
:1007E000CF92DF92EF92FF926B017C010E94930106
:1007F0004B015C01C114D104E104F104F1F00E9449
:100800009301DC01CB0188199909AA09BB09883E2B
:100810009340A105B10570F321E0C21AD108E108A7
:10082000F10888EE880E83E0981EA11CB11CC1144B
:10083000D104E104F10419F7DDCFFF90EF90DF90D0
:10084000CF90BF90AF909F908F9008952FB7F8945E
:1008500060918D0370918E0380918F03909190032E
:100860002FBF08951F920F920FB60F9211242F934E
:100870003F938F939F93AF93BF9380918D039091FC
:100880008E03A0918F03B091900330918C0323E0ED
:10089000230F2D3720F40196A11DB11D05C026E8B8
:1008A000230F0296A11DB11D20938C0380938D030D
:1008B00090938E03A0938F03B09390038091910344
:1008C00090919203A0919303B09194030196A11D7E
:1008D000B11D8093910390939203A0939303B093DF
:1008E0009403BF91AF919F918F913F912F910F9062
:1008F0000FBE0F901F9018951F920F920FB60F9278
:1009000011242F933F934F935F936F937F938F9314
:100910009F93AF93BF93EF93FF93E0918A03F0917E
:100920008B03309709F451C0968DA685B7858585D0
:1009300091FF04C09C91892329F447C09C9189238D
:1009400009F043C0A389B4899C9185898095892346
:100950008C93868997890197F1F7608D718DA685B3
:10096000B785558538E020E0CB010197F1F7822F5C
:1009700090E095958795282F4C91452309F02068A4
:10098000315091F7868D81FD20958091880390E00C
:1009900001968F73992730918903381749F0A091F8
:1009A0008803B0E0A85BBC4F2C938093880303C0FE
:1009B000868D8160868F828D938D0197F1F7A38953
:1009C000B4899C918589892B8C93FF91EF91BF917C
:1009D000AF919F918F917F916F915F914F913F91D7
:1009E0002F910F900FBE0F901F901895CF92DF920E
:1009F000EF92FF920F931F93CF93DF93EC010E942E
:100A000026046E837F838887998788819981892BC3
:100A100011F480E028C00E9426040A811B812C81E9
:100A20003D81CE80DF80E884F9840C0D1D1D2E1DD4
:100A30003F1D601771078207930758F788819981D6
:100A4000DC01ED91FC910084F185E02D09951816EB
:100A500019060CF788819981DC01ED91FC910284E3
:100A6000F385E02D0995DF91CF911F910F91FF90B4
:100A7000EF90DF90CF9008956F927F928F929F9228
:100A8000AF92BF92CF92DF92EF92FF920F931F939C
:100A9000CF93DF935C014A0179010E94FF09811124
:100AA00003C080E090E028C0F70110826701C0E039
:100AB000D0E03801F1E06F1A7108C615D705BCF413
:100AC000C5010E94F604882361F3F4019081891323
:100AD00009C0C017D1077CF4F701EC0FFD1F10828D
:100AE0002196F7CF2196F60181936F01E6CFF701AA
:100AF000EC0FFD1F1082CE01DF91CF911F910F915E
:100B0000FF90EF90DF90CF90BF90AF909F908F902D
:100B10007F906F900895CF92DF92EF92FF920F93A4
:100B20001F939B01DC01ED91FC9136970190F081C0
:100B3000E02D8E0F9F1F85509F4F68EBC62E6BE0F8
:100B4000D62EE12CF12CFC01C282D382E482F58204
:100B50008A014EE652E0BA010E943C051F910F91B6
:100B6000FF90EF90DF90CF9008958F929F92AF9279
:100B7000BF92CF92DF92EF92FF920F931F93CF938A
:100B8000DF93EC017C0182EDE80EF11CF70180811E
:100B9000811133C0CE0184529F4F0E9425028E01E5
:100BA00009521F4F892BF9F40E942604F801008195
:100BB000118122813381AB01BC01401B510B620BBF
:100BC000730B349780819181A0E0B0E048175907FA
:100BD0006A077B0790F032978081FE01E80FF11DD4
:100BE000128214E00BC00E942604F8016083718316
:100BF0008283938381E0F701808310E0F701808195
:100C0000813009F05CC07E01FCEDEF0EF11CC701E4
:100C10000E942502082F882349F00E942604FE0125
:100C2000E952FF4F60837183828393836E0181ED6C
:100C3000C80ED11C5E01EFECAE0EB11C002301F119
:100C40000150F6018081883CB8F4F50180809180E4
:100C5000C7010E943D02F4018083F50180819181EA
:100C6000019691838083F60180818F5F8083FE01EE
:100C7000E80FF11D1282E2CFC7010E943D02DECFD4
:100C80000E942604FE01E952FF4FC080D180E2801D
:100C9000F380AB01BC014C195D096E097F093297E5
:100CA00080819181A0E0B0E0481759076A077B076F
:100CB00030F034978081C80FD11D1A8211E0812F46
:100CC000DF91CF911F910F91FF90EF90DF90CF9028
:100CD000BF90AF909F908F9008952F923F924F9228
:100CE0005F926F927F928F929F92AF92BF92CF92BC
:100CF000DF92EF92FF920F931F93CF93DF93CDB7C5
:100D0000DEB72C970FB6F894DEBF0FBECDBF9C8721
:100D10008B874B013A012901F12C8FEF2B843C8406
:100D20002CED220E311CEB85FC85EE52FF4FFA8331
:100D3000E9832B853C852D523F4F3C832B83EB85EC
:100D4000FC85EB52FF4FFE83ED832B853C852952BA
:100D50003F4F38872F83CB84DC8432E0C30ED11C15
:100D6000EB85FC85E153FF4FFA87E987AB84BC84B0
:100D7000F1EDAF0EB11CFE1409F441C0FF2031F0BB
:100D800064EF71E080E090E00E94EC03B401C101E7
:100D90000E94530BE981FA811082EB81FC81718200
:100DA0006082ED81FE81518240820E942604EF81A3
:100DB000F8856083718382839383EB85FC8512823F
:100DC000E985FA85D182C082F50110828B859C85E8
:100DD0000E94B5058823D1F3813059F4F501808153
:100DE000882349F0B801C6010E94920E892B31F484
:100DF00002C08FEF01C080E0F394BDCF81E02C965C
:100E00000FB6F894DEBF0FBECDBFDF91CF911F911B
:100E10000F91FF90EF90DF90CF90BF90AF909F9099
:100E20008F907F906F905F904F903F902F9008959C
:100E30002F923F924F925F926F927F928F929F92EA
:100E4000AF92BF92CF92DF92EF92FF920F931F93D8
:100E5000CF93DF9300D01F92CDB7DEB76C012A018C
:100E60003B014C018DEC880E911C81E0F4018083E4
:100E7000C60184529F4F9B838A830E94740216018D
:100E80009BEC290E311C81E090E0F101918380837D
:100E9000F3E0AF2EB12CE5E0EE2E0BE712E024E6F6
:100EA00030E044EF51E06CE371E0C6010E946D0652
:100EB0008F3F09F442C165E372E085E993E00E9447
:100EC000530B1982F1E0AF1AB10829F775E0E72E4C
:100ED0000BE712E024E630E044EF51E06CE371E010
:100EE000C6010E946D06813049F46FE371E085E927
:100EF00093E00E94530BFF24F39401C0F12C8981ED
:100F0000882339F06DE471E085E993E00E94530B8A
:100F100011C165E0E62E0BE712E024E630E044EF75
:100F200051E06CE371E0C6010E946D0681114EC074
:100F3000F1104CC068E472E085E993E00E94530B25
:100F4000AA24A394B12C94E0A916B10409F426C1F3
:100F50000CF010C1F2E0AF16B10409F415C183E042
:100F6000A816B10409F415C140E659E060E070E04C
:100F70008A819B810E94740264E670E080E090E0C8
:100F80000E94EC0355E0E52E0BE712E024E630E08A
:100F900044EF51E06CE371E0C6010E946D068130C0
:100FA00009F41AC166EB71E085E993E00E94530BE6
:100FB0008FEFA81AB80A98E0A916B10421F6F60135
:100FC000E153FF4FC601029691838083F4011082A2
:100FD000FF2009F48FC0FF24F394F08295E0E92EFE
:100FE0000BE712E022E330E048EE53E06FEB71E0F4
:100FF000C6010E946D0622E330E044EF51E064EC4C
:1010000071E0C6010E946D06F401F08222E330E037
:1010100044EF51E069EC71E0C6010E946D0622E3E5
:1010200030E044EF51E063ED71E0C6010E946D06CF
:1010300022E330E044EF51E06DED71E0C6010E9423
:101040006D06F401F08222E0E22E22E330E048EE69
:1010500053E067EE71E0C6010E946D063AE0E32EB0
:1010600003EF11E028EE33E048EE53E06AEF71E061
:10107000C6010E946D06F401108245E0E42E0BE7E4
:1010800012E022E330E048EE53E061E172E0C60195
:101090000E946D060EE112E022E330E044EF51E0E1
:1010A00066E272E0C6010E946D06F401F08261E31F
:1010B00072E08A819B810E94460340E050E0BA01C1
:1010C0008A819B810E947E096BEA71E08A819B8103
:1010D0000E94460364EF71E080E090E00E94EC0320
:1010E000F401108282E090E0F1019183808381E03D
:1010F00090E0B0C040E052EC61E070E08A819B81FA
:101100000E94740268EE73E080E090E00E94EC03BD
:1011100063EA71E08A819B810E944603B301A201C8
:101120008A819B810E947E096BEA71E08A819B81A2
:101130000E94460380E090E08DC06DE372E085E997
:1011400093E00E94530B61E088E00E94A00360EBF3
:1011500074E080E090E00E94EC0360E088E00E9490
:10116000A00360E177E280E090E00E94EC03F1E010
:10117000F983A8CE96E0A916B104D1F0A4F0F7E067
:10118000AF16B104D1F0F0CE40EC52E160E070E077
:10119000EFCE40E855E260E070E0EACE40E05BE48C
:1011A00060E070E0E5CE40E056E960E070E0E0CE5F
:1011B00040E051EE60E070E0DBCE40E052EC61E0F8
:1011C00070E08A819B810E94740264EF71E080E08C
:1011D00090E00E94EC03D0CE62E971E085E993E0F3
:1011E0000E94530B63EA71E08A819B810E9446034F
:1011F000B301A2018A819B810E947E096BEA71E0A2
:101200008A819B810E94460364EF71E080E090E058
:101210000E94EC03B301A2018A819B810E947402A7
:1012200064E670E080E090E00E94EC0324E630E0A9
:1012300044EF51E06CE371E0C6010E946D0681301D
:1012400031F46DEA71E085E993E00E94530BFF24CD
:10125000F394B5CE0F900F900F90DF91CF911F9127
:101260000F91FF90EF90DF90CF90BF90AF909F9045
:101270008F907F906F905F904F903F902F90089548
:10128000CF93DF93EA0110920605909308058093AF
:10129000070570930A05609309050E942604609370
:1012A0000B0570930C0580930D0590930E0510921D
:1012B000360486E394E0909304058093030510922E
:1012C000050584E394E00E94B5058823D1F38130BD
:1012D00069F480910505882359F0BE0186E394E006
:1012E0000E94920E892B21F082E003C084E001C0AD
:1012F00083E0DF91CF9108950E948D0E4F925F920F
:101300006F927F928F929F92AF92BF92CF92DF9215
:10131000EF92FF920F931F93CF93DF93CDB7DEB77A
:10132000A1970FB6F894DEBF0FBECDBF8C016A0146
:101330007B0177FF2FC0DC01ED91FC910190F081E2
:10134000E02D6DE209955C0122273327A9012C19B4
:101350003D094E095F0919A2FE01B1967F019AE08D
:10136000492E512C612C712CCA01B901A3019201A3
:101370000E94180E605DD7016E937D012115310525
:101380004105510589F7BD01C8010E9431038A0D4D
:101390009B1D1EC09A01AB0119A2FE01B1967F01EF
:1013A0008AE0882E912CA12CB12CCA01B901A5018B
:1013B00094010E94180E605DD7016E937D01211586
:1013C00031054105510589F7BD01C8010E9431036E
:1013D000A1960FB6F894DEBF0FBECDBFDF91CF91BF
:1013E0001F910F91FF90EF90DF90CF90BF90AF9043
:1013F0009F908F907F906F905F904F900895CF92C5
:10140000DF92EF92FF921F93CF93DF93FB01019046
:101410000020E9F731976F01C61AD70AFB01208136
:10142000211102C081E012C0EB017C0110E0C70174
:101430000E94F604882351F0FE01E10FF11D908116
:101440008913F4CF1F5F1C1590F3ECCFDF91CF9180
:101450001F91FF90EF90DF90CF9008958F929F9211
:10146000BF92CF92DF92EF92FF920F931F93CF9391
:10147000DF9300D000D0CDB7DEB7E0913204F09119
:1014800033043697208131812E5C3B4FF901E550C2
:10149000FF4F80E197E2A0E0B0E082839383A483D2
:1014A000B58379018CEDE80EF11C65E572E0C701AA
:1014B0000E94460380913A0590913B05059734F0D0
:1014C00065E572E085E993E00E9446036CE672E010
:1014D000C7010E943103E0913204F0913304369742
:1014E000808191816FE672E0835D9A4F0E94FF09CF
:1014F000B82E882309F4C6C0E0913204F091330479
:101500003697808191819C01235D3A4F4901C40146
:101510000E94F604E82F8D3229F420E030E0A90182
:1015200010E034C080ED8E0F8A30B8F3E111EFCFB8
:10153000F4CFEE23E1F1ED3261F180ED8E0F8A30D0
:10154000A8F4AAE0B0E00E94590ECE2EEE0FDD08FE
:10155000EE08FF08DC01CB018C0D9D1DAE1DBF1DEB
:101560009C01AD012053310941095109C40129836E
:101570003A834B835C830E94F604E82F80ED8E0F44
:1015800029813A814B815C818A3028F4E13089F6E7
:10159000EDCF11E0EBCFE13049F3112361F0CC2422
:1015A000DD247601C21AD30AE40AF50A06C0C12C6A
:1015B000D12C760102C069017A01E0913204F091E8
:1015C000330436978081918104E110E02DE335E00A
:1015D0004FE852E067E772E0835D9A4F0E943C0556
:1015E000E0913204F091330436978081918100EAD2
:1015F00010E021E535E04AE752E06DE672E0835DF8
:101600009A4F0E943C05E0913204F09133043697E2
:1016100000811181025F1A4F6EE772E0C8010E94DB
:10162000460380913A0590913B05059734F06EE7AB
:1016300072E085E993E00E944603B701A601C80164
:101640000E947E0980913A0590913B05059744F0F0
:10165000A601DD0C660B770B85E993E00E947E09FD
:101660006CE672E0C8010E943103E0913204F0910F
:1016700033043697808191816BE772E0835D9A4FE6
:101680000E94FF098B2D0F900F900F900F90DF910C
:10169000CF911F910F91FF90EF90DF90CF90BF906F
:1016A0009F908F9008950F931F93CF93DF93EC013A
:1016B0000E9431038C016CE672E0CE010E9431037E
:1016C000800F911FDF91CF911F910F910895CF93BC
:1016D000DF9300D0CDB7DEB78AE189831A82E0912B
:1016E0003204F091330436978081918167E872E08B
:1016F000825F9A4F0E944603E0913204F0913304D6
:1017000036978081918161E972E0825F9A4F0E94F1
:101710004603E0913204F091330436978081918141
:101720006FE872E0825F9A4F0E94530B6EE972E09D
:1017300085E993E00E94530B43EB52E064EF71E0C4
:1017400088EE93E00E944009823011F08FEF2CC0A8
:101750006DEA72E085E993E00E94530BE091320458
:10176000F091330436978081918165EB72E0825F5E
:101770009A4F0E944603E0913204F0913304369769
:1017800080819181BE016F5F7F4F825F9A4F0E947F
:10179000530B45E053E068E873E188E59BE10E9464
:1017A0004009823099F681E0109201050F900F9068
:1017B000DF91CF910895E2E3F4E080E391E091833B
:1017C000808388E291E09383828386E191E0909325
:1017D00011058093100580E195E00C945E02CF9393
:1017E000DF93109298031092970388EE93E0A0E0A5
:1017F000B0E08093990390939A03A0939B03B093D6
:101800009C0324E031E0309396032093950325EC6C
:1018100030E03093A2032093A10324EC30E0309316
:10182000A4032093A30320EC30E03093A60320937D
:10183000A50321EC30E03093A8032093A70322EC0A
:1018400030E03093AA032093A90326EC30E03093D4
:10185000AC032093AB031092AE031092AF0310922F
:10186000B0031092B10323E030E030933B052093A6
:101870003A0528E231E0309335042093340421E026
:1018800030E0309300052093FF041092130510926E
:1018900012058093140590931505A0931605B09337
:1018A000170586E191E09093110580931005109241
:1018B00027051092260510922905109228051092EE
:1018C0002B0510922A0510922D0510922C0560917F
:1018D0002E056E7F6D7F60932E056695617081E0A9
:1018E000682783E00E94A003E1EBF0E02491EDE99A
:1018F000F0E08491882399F090E0880F991FFC0113
:10190000EA57FF4FA591B491FC01E458FF4F859130
:1019100094918FB7F894EC91E22BEC938FBFE1EBAD
:10192000F0E0E491E0932005EDE9F0E0E491F0E0EF
:10193000EE0FFF1FE458FF4F85919491909322057D
:1019400080932105E0EBF0E02491ECE9F0E0849154
:101950008823C1F090E0880F991FFC01EA57FF4FE0
:10196000C591D491FC01E458FF4FA591B4919FB764
:10197000F8948881E22FE0958E2388838C91E82368
:10198000EC939FBF80912E0581FD04C061E082E051
:101990000E94A00382E080931C05E0EBF0E0E4915C
:1019A000E0931D05ECE9F0E0E491F0E0EE0FFF1F9D
:1019B000E057FF4F8591949190931F0580931E05EA
:1019C00080E195E09093300580932F0580E197E2C8
:1019D000A0E0B0E08093310590933205A0933305E9
:1019E000B093340581E08093390580E391E09093D2
:1019F0003304809332048AE391E09093350480931A
:101A00003404DF91CF910895789484B5826084BDC9
:101A100084B5816084BD85B5826085BD85B58160F2
:101A200085BD80916E00816080936E001092810070
:101A3000809181008260809381008091810081602B
:101A400080938100809180008160809380008091EC
:101A5000B10084608093B1008091B0008160809378
:101A6000B00080917A00846080937A0080917A003F
:101A7000826080937A0080917A00816080937A00FE
:101A800080917A00806880937A001092C100E09182
:101A9000A503F091A60382E08083E091A103F09179
:101AA000A2031082E091A303F091A4038FEC808342
:101AB0001092AD03E091A903F091AA0386E0808320
:101AC000E091A703F091A803808180618083E09179
:101AD000A703F091A803808188608083E091A70329
:101AE000F091A803808180688083E091A703F09142
:101AF000A80380818F7D80836BE073E085E993E0AC
:101B00000E94530B40E659E060E070E084E394E00B
:101B10000E941807892B51F06FE173E085E993E08B
:101B20000E94530B81E080933C0506C06DE273E098
:101B300085E993E00E94530B80913C05882351F086
:101B40000E94670B882331F06AE373E085E993E034
:101B50000E94530BC1E080913C05882309F451C0D9
:101B60000E942E0A882361F06DE375E085E993E019
:101B70000E94530B61E575E085E993E00E94530BE9
:101B800068EE73E080E090E00E94EC0380913C05F9
:101B9000882381F00E942E0A882361F06DE375E0AE
:101BA00085E993E00E94530B61E575E085E993E0D8
:101BB0000E94530B40E659E060E070E084E394E05B
:101BC0000E941807892B49F06FE173E085E993E0E3
:101BD0000E94530BC0933C0506C06DE273E085E99B
:101BE00093E00E94530B80913C05882351F00E94A2
:101BF000670B882331F06AE373E085E993E00E9484
:101C0000530B0E948901A7CF97FB072E16F400946F
:101C100007D077FD09D00E94640E07FC05D03EF482
:101C2000909581959F4F0895709561957F4F089588
:101C3000A1E21A2EAA1BBB1BFD010DC0AA1FBB1FD0
:101C4000EE1FFF1FA217B307E407F50720F0A21B42
:101C5000B30BE40BF50B661F771F881F991F1A94AF
:101C600069F760957095809590959B01AC01BD01D9
:101C7000CF010895052E97FB1EF400940E94510E8B
:101C800057FD07D00E94180E07FC03D04EF40C94A9
:101C9000510E50954095309521953F4F4F4F5F4FD6
:101CA000089590958095709561957F4F8F4F9F4FC8
:101CB00008950E947E0EA59F900DB49F900DA49F45
:101CC000800D911D11240895AA1BBB1B51E107C073
:101CD000AA1FBB1FA617B70710F0A61BB70B881FBC
:101CE000991F5A95A9F780959095BC01CD0108954B
:101CF000EE0FFF1F0590F491E02D0994A29FB00113
:101D0000B39FC001A39F700D811D1124911DB29F2F
:101D1000700D811D1124911D089581E090E0F894CB
:101D20000C94AC0EFB0151915523A9F0BF01DC01CD
:101D30004D9145174111E1F759F4CD010190002073
:101D400049F04D9140154111C9F3FB014111EFCF0D
:101D500081E090E00197089510E0C2E6D0E004C071
:101D6000FE010E94780E2196C336D107C9F7F89478
:021D7000FFCFA3
:101D72000000000020018D00B8006701E900C700E3
:101D8200DB0000000000D1018D002103D0012502FB
:101D92003D02B80100000000180702000000000028
:101DA2008B0524030000FEFF000018074154004485
:101DB200423A434F525245435420425200455252F6
:101DC2004F523A2053494D39303020646F65736E5B
:101DD200277420616E737765722E20436865636B8A
:101DE20020706F77657220616E642073657269611D
:101DF2006C2070696E7320696E2047534D2E63709C
:101E0200700044423A464F554E44205052455620A7
:101E120042520041542B4950523D000D0044423A77
:101E22004F4B2042520044423A4E4F204252004110
:101E320054264600415445300041542B434C4950EE
:101E42003D310041542B434D45453D300041542B1B
:101E5200434D47463D310041542B434E4D493D329F
:101E62002C30002B43504D533A0041542B43504DDC
:101E7200533D22534D222C22534D222C22534D22CC
:101E82000041542B435042533D22534D22005348AC
:101E92005554204F4B0041542B43495053485554FD
:101EA200004154450044423A454C53450044423AAD
:101EB2004E4F20524553500044423A444946462030
:101EC200524553500041542B434D474C3D225245FD
:101ED2004320554E52454144222C31000D0A002B1D
:101EE200434D474C3A2000222B000A4F4B004154ED
:101EF2002B434D47443D0041542B434D47533D2214
:101F020000323333323438343435393730004445D3
:101F12004255473A534D5320544553540044454289
:101F220055473A3E0041697220706F6C6C75746956
:101F32006F6E207468726573686F6C642056414CD2
:101F42005545532065786365656465642061742036
:101F52006C61743A202D352E3233333133353620CD
:101F6200616E64206C6F6E673A20312E32333537E2
:101F720039393837002B434D47530047534D2053CF
:101F82006869656C642074657374696E672E000AF3
:101F92007374617475733D5245414459000A7374F8
:101FA200617475733D49444C45000A534D53207387
:081FB200656E74204F4B000026
:107E0000112484B714BE81FFF0D085E080938100F7
:107E100082E08093C00088E18093C10086E0809377
:107E2000C20080E18093C4008EE0C9D0259A86E02C
:107E300020E33CEF91E0309385002093840096BBD3
:107E4000B09BFECF1D9AA8958150A9F7CC24DD24C4
:107E500088248394B5E0AB2EA1E19A2EF3E0BF2EE7
:107E6000A2D0813461F49FD0082FAFD0023811F036
:107E7000013811F484E001C083E08DD089C08234E0
:107E800011F484E103C0853419F485E0A6D080C0E4
:107E9000853579F488D0E82EFF2485D0082F10E0AE
:107EA000102F00270E291F29000F111F8ED06801E7
:107EB0006FC0863521F484E090D080E0DECF843638
:107EC00009F040C070D06FD0082F6DD080E0C81688
:107ED00080E7D80618F4F601B7BEE895C0E0D1E017
:107EE00062D089930C17E1F7F0E0CF16F0E7DF06D8
:107EF00018F0F601B7BEE89568D007B600FCFDCFD4
:107F0000A601A0E0B1E02C9130E011968C91119780
:107F100090E0982F8827822B932B1296FA010C0160
:107F200087BEE89511244E5F5F4FF1E0A038BF0790
:107F300051F7F601A7BEE89507B600FCFDCF97BE46
:107F4000E89526C08437B1F42ED02DD0F82E2BD052
:107F50003CD0F601EF2C8F010F5F1F4F84911BD097
:107F6000EA94F801C1F70894C11CD11CFA94CF0C13
:107F7000D11C0EC0853739F428D08EE10CD085E9AC
:107F80000AD08FE07ACF813511F488E018D01DD067
:107F900080E101D065CF982F8091C00085FFFCCF94
:107FA0009093C60008958091C00087FFFCCF809118
:107FB000C00084FD01C0A8958091C6000895E0E648
:107FC000F0E098E1908380830895EDDF803219F02E
:107FD00088E0F5DFFFCF84E1DECF1F93182FE3DFCA
:107FE0001150E9F7F2DF1F91089580E0E8DFEE27F6
:047FF000FF270994CA
:027FFE00040479
:0400000300007E007B
:00000001FF
